S01000004156525F455854492E7372656392
S11300000C942A000C946F000C943C000C943C005B
S11300100C943C000C943C000C943C000C943C006C
S11300200C943C000C943C000C943C000C943C005C
S11300300C943C000C943C000C943C000C943C004C
S11300400C943C000C943C000C943C000C943C003C
S11300500C943C0011241FBECFE5D8E0DEBFCDBF19
S113006020E0A0E6B0E001C01D92A236B207E1F79D
S11300700E9455000C949D000C94000082B3806291
S113008082BB2FEF89E698E1215080409040E1F750
S113009000C0000082B38F7D82BB0895009721F0D9
S11300A09093610080936000089581B3806281BB66
S11300B081B38B7F81BB82B3846082BB8FB780683E
S11300C08FBF8BB780648BBF85B7816085BF85B7D1
S11300D0826085BF8EE390E00E944E00FFCF1F92A6
S11300E00F920FB60F9211242F933F934F935F9368
S11300F06F937F938F939F93AF93BF93EF93FF93EC
S1130100E0916000F0916100099595B781E089273D
S113011085BF85B7826085BFFF91EF91BF91AF9195
S11301209F918F917F916F915F914F913F912F910B
S11101300F900FBE0F901F901895F894FFCFFC
S9030000FC
